:100000009DEF00F00000000000EF00F00000000095
:0A0010000000000000000000F3D71C
:10001C000134083609360450085E0550D8A0053C5A
:10002C00095E003601360F0E0C6E013408360936A7
:10003C00045000A006D0085E0550D8A0053C095E0F
:10004C0005D008260550D8B0053C092600360136E7
:10005C000C2EEBD700B006D0045008260550D8B0B3
:08006C00053C0926000012000A
:100074000450000A08E10550000A05E1FF0E006E75
:100084007F0E016E57D00D6A096A086A015000108C
:10009400D8B4000C015005180A6E0ABE0D1E0B6A76
:1000A40005AE05D0041E051E042AD8B4052A01AEE7
:1000B40005D0001E011E002AD8B4012A01500510E3
:1000C4000A6E0ABE10D0A8DF0BB020D00DAE000C13
:1000D400001E011E002AD8B4012A081E091E082A7F
:1000E400D8B4092A000C05AE0DD001BE07D00150CA
:1000F400096E0050086E016A006AE8D7016A006A56
:10010400002A000C011E001E0B2ADDD7082AD8B4D1
:10011400092A0450085CD8A4D9D70550095CD8A48E
:10012400D5D7096A086A002AD8B4012A01AECED705
:060134000000FF0C1200A8
:10013A00156A956A836A9E0E1524F66E010EF76E8D
:10014A00000EF722000EF86E000EF8220900F5CF15
:10015A0083FF1550010F006E016A000E01220A0E7C
:10016A00046E000E056E81DF08C000F009C001F0C0
:10017A0000C015F0060E0B6E130E0C6EAD0E0D6E52
:10018A000D2EFED70C2EFCD70B2EFAD7000000003E
:04019A00D2D7FFD7E2
:0A019E003F065B4F666D7D077F6F23
:020000040030CA
:0E000000000C1F1EFF8381FF0FC00FE00F409A
:00000001FF
